{
  "contractName": "Employer",
  "abi": [
    {
      "constant": true,
      "inputs": [],
      "name": "owner",
      "outputs": [
        {
          "name": "",
          "type": "address"
        }
      ],
      "payable": false,
      "stateMutability": "view",
      "type": "function"
    },
    {
      "constant": true,
      "inputs": [
        {
          "name": "",
          "type": "uint256"
        }
      ],
      "name": "addresses",
      "outputs": [
        {
          "name": "",
          "type": "address"
        }
      ],
      "payable": false,
      "stateMutability": "view",
      "type": "function"
    },
    {
      "inputs": [],
      "payable": false,
      "stateMutability": "nonpayable",
      "type": "constructor"
    },
    {
      "constant": false,
      "inputs": [
        {
          "name": "_name",
          "type": "bytes32"
        }
      ],
      "name": "register",
      "outputs": [],
      "payable": false,
      "stateMutability": "nonpayable",
      "type": "function"
    },
    {
      "constant": false,
      "inputs": [],
      "name": "getAllEmployers",
      "outputs": [
        {
          "name": "",
          "type": "bytes32[]"
        }
      ],
      "payable": false,
      "stateMutability": "nonpayable",
      "type": "function"
    }
  ],
  "bytecode": "0x608060405234801561001057600080fd5b5033600260006101000a81548173ffffffffffffffffffffffffffffffffffffffff021916908373ffffffffffffffffffffffffffffffffffffffff1602179055506000600381905550610416806100696000396000f3fe608060405234801561001057600080fd5b506004361061004c5760003560e01c806314c671d6146100515780638da5cb5b146100b0578063e1fa8e84146100fa578063edf26d9b14610128575b600080fd5b610059610196565b6040518080602001828103825283818151815260200191508051906020019060200280838360005b8381101561009c578082015181840152602081019050610081565b505050509050019250505060405180910390f35b6100b8610286565b604051808273ffffffffffffffffffffffffffffffffffffffff1673ffffffffffffffffffffffffffffffffffffffff16815260200191505060405180910390f35b6101266004803603602081101561011057600080fd5b81019080803590602001909291905050506102ac565b005b6101546004803603602081101561013e57600080fd5b81019080803590602001909291905050506103a5565b604051808273ffffffffffffffffffffffffffffffffffffffff1673ffffffffffffffffffffffffffffffffffffffff16815260200191505060405180910390f35b6060806001805490506040519080825280602002602001820160405280156101cd5781602001602082028038833980820191505090505b50905060008090505b60018054905081101561027e57600080600183815481106101f357fe5b9060005260206000200160009054906101000a900473ffffffffffffffffffffffffffffffffffffffff1673ffffffffffffffffffffffffffffffffffffffff1673ffffffffffffffffffffffffffffffffffffffff1681526020019081526020016000205482828151811061026557fe5b60200260200101818152505080806001019150506101d6565b508091505090565b600260009054906101000a900473ffffffffffffffffffffffffffffffffffffffff1681565b6000801b6000803373ffffffffffffffffffffffffffffffffffffffff1673ffffffffffffffffffffffffffffffffffffffff16815260200190815260200160002054146102f957600080fd5b60013390806001815401808255809150509060018203906000526020600020016000909192909190916101000a81548173ffffffffffffffffffffffffffffffffffffffff021916908373ffffffffffffffffffffffffffffffffffffffff16021790555050806000803373ffffffffffffffffffffffffffffffffffffffff1673ffffffffffffffffffffffffffffffffffffffff1681526020019081526020016000208190555050565b600181815481106103b257fe5b906000526020600020016000915054906101000a900473ffffffffffffffffffffffffffffffffffffffff168156fea265627a7a723058200af1a3a47c45a1de13b10730681b176d9ff335a2d22a583ba774a1b67b76a48364736f6c63430005090032",
  "source": "pragma solidity = 0.5.9;\n\ncontract Employer {\n\tmapping(address => bytes32) employers;\n\taddress[] public addresses;\n\taddress public owner;\n\tuint private count;\n\tconstructor() public {\n\t\towner = msg.sender;\n\t\tcount = 0;\n\t}\n\n\tfunction register(bytes32 _name) external {\n\t\trequire(employers[msg.sender] == 0);\n\t\taddresses.push(msg.sender);\n\t\temployers[msg.sender] = _name;\n\t\t\n\t}\n\tfunction getAllEmployers() external returns (bytes32[] memory) {\n\t\tbytes32[] memory results = new bytes32[](addresses.length);\n\t\tfor(uint i =0;i<addresses.length;i++){\n\t\t\tresults[i] = employers[addresses[i]];\n\t\t}\n\t\treturn results;\n\t}\n\n}",
  "sourcePath": "/Users/nizamsyahrul/Desktop/Projects/WorldResume/contracts/Employer.sol",
  "compiler": {
    "name": "solc",
    "version": "0.5.9+commit.e560f70d.Emscripten.clang"
  },
  "schemaVersion": "3.0.11",
  "updatedAt": "2019-08-24T10:24:08.879Z",
  "devdoc": {
    "methods": {}
  },
  "userdoc": {
    "methods": {}
  }
}