{
  "contractName": "Portfolio",
  "abi": [
    {
      "constant": true,
      "inputs": [],
      "name": "owner",
      "outputs": [
        {
          "name": "",
          "type": "address"
        }
      ],
      "payable": false,
      "stateMutability": "view",
      "type": "function"
    },
    {
      "inputs": [
        {
          "name": "_owner",
          "type": "address"
        }
      ],
      "payable": false,
      "stateMutability": "nonpayable",
      "type": "constructor"
    },
    {
      "constant": false,
      "inputs": [
        {
          "name": "_companyName",
          "type": "string"
        },
        {
          "name": "_position",
          "type": "string"
        },
        {
          "name": "_start",
          "type": "uint256"
        },
        {
          "name": "_end",
          "type": "uint256"
        }
      ],
      "name": "addJob",
      "outputs": [],
      "payable": false,
      "stateMutability": "nonpayable",
      "type": "function"
    },
    {
      "constant": true,
      "inputs": [
        {
          "name": "_id",
          "type": "bytes32"
        }
      ],
      "name": "getJobById",
      "outputs": [
        {
          "name": "",
          "type": "string"
        },
        {
          "name": "",
          "type": "string"
        },
        {
          "name": "",
          "type": "uint256"
        },
        {
          "name": "",
          "type": "uint256"
        },
        {
          "name": "",
          "type": "bool"
        }
      ],
      "payable": false,
      "stateMutability": "view",
      "type": "function"
    },
    {
      "constant": true,
      "inputs": [],
      "name": "getAllJobId",
      "outputs": [
        {
          "name": "",
          "type": "bytes32[]"
        }
      ],
      "payable": false,
      "stateMutability": "view",
      "type": "function"
    },
    {
      "constant": false,
      "inputs": [
        {
          "name": "_id",
          "type": "bytes32"
        }
      ],
      "name": "verify",
      "outputs": [],
      "payable": false,
      "stateMutability": "nonpayable",
      "type": "function"
    }
  ],
  "bytecode": "0x608060405234801561001057600080fd5b506040516108863803806108868339818101604052602081101561003357600080fd5b8101908080519060200190929190505050806000806101000a81548173ffffffffffffffffffffffffffffffffffffffff021916908373ffffffffffffffffffffffffffffffffffffffff160217905550506107f2806100946000396000f3fe608060405234801561001057600080fd5b50600436106100575760003560e01c8063015e8a271461005c578063184d3055146100bb57806375e366161461019d5780638da5cb5b146101cb578063c574d58814610215575b600080fd5b610064610341565b6040518080602001828103825283818151815260200191508051906020019060200280838360005b838110156100a757808201518184015260208101905061008c565b505050509050019250505060405180910390f35b61019b600480360360808110156100d157600080fd5b81019080803590602001906401000000008111156100ee57600080fd5b82018360208201111561010057600080fd5b8035906020019184600183028401116401000000008311171561012257600080fd5b90919293919293908035906020019064010000000081111561014357600080fd5b82018360208201111561015557600080fd5b8035906020019184600183028401116401000000008311171561017757600080fd5b90919293919293908035906020019092919080359060200190929190505050610399565b005b6101c9600480360360208110156101b357600080fd5b81019080803590602001909291905050506104f0565b005b6101d3610522565b604051808273ffffffffffffffffffffffffffffffffffffffff1673ffffffffffffffffffffffffffffffffffffffff16815260200191505060405180910390f35b6102416004803603602081101561022b57600080fd5b8101908080359060200190929190505050610547565b60405180806020018060200186815260200185815260200184151515158152602001838103835288818151815260200191508051906020019080838360005b8381101561029b578082015181840152602081019050610280565b50505050905090810190601f1680156102c85780820380516001836020036101000a031916815260200191505b50838103825287818151815260200191508051906020019080838360005b838110156103015780820151818401526020810190506102e6565b50505050905090810190601f16801561032e5780820380516001836020036101000a031916815260200191505b5097505050505050505060405180910390f35b6060600280548060200260200160405190810160405280929190818152602001828054801561038f57602002820191906000526020600020905b81548152602001906001019080831161037b575b5050505050905090565b60008686868686866001546040516020018088888082843780830192505050868680828437808301925050508481526020018381526020018281526020019750505050505050506040516020818303038152906040528051906020012090506002819080600181540180825580915050906001820390600052602060002001600090919290919091505550600160008154809291906001019190505550868660036000848152602001908152602001600020600001919061045b929190610718565b508484600360008481526020019081526020016000206001019190610481929190610718565b5082600360008381526020019081526020016000206002018190555081600360008381526020019081526020016000206003018190555060006003600083815260200190815260200160002060040160006101000a81548160ff02191690831515021790555050505050505050565b60016003600083815260200190815260200160002060040160006101000a81548160ff02191690831515021790555050565b6000809054906101000a900473ffffffffffffffffffffffffffffffffffffffff1681565b606080600080600060036000878152602001908152602001600020600001600360008881526020019081526020016000206001016003600089815260200190815260200160002060020154600360008a815260200190815260200160002060030154600360008b815260200190815260200160002060040160009054906101000a900460ff16848054600181600116156101000203166002900480601f0160208091040260200160405190810160405280929190818152602001828054600181600116156101000203166002900480156106625780601f1061063757610100808354040283529160200191610662565b820191906000526020600020905b81548152906001019060200180831161064557829003601f168201915b50505050509450838054600181600116156101000203166002900480601f0160208091040260200160405190810160405280929190818152602001828054600181600116156101000203166002900480156106fe5780601f106106d3576101008083540402835291602001916106fe565b820191906000526020600020905b8154815290600101906020018083116106e157829003601f168201915b505050505093509450945094509450945091939590929450565b828054600181600116156101000203166002900490600052602060002090601f016020900481019282601f1061075957803560ff1916838001178555610787565b82800160010185558215610787579182015b8281111561078657823582559160200191906001019061076b565b5b5090506107949190610798565b5090565b6107ba91905b808211156107b657600081600090555060010161079e565b5090565b9056fea265627a7a72305820d2dddb175ba6631ff69e018c3ff4607c080ce495eb9c457b6a24f2893529874164736f6c63430005090032",
  "source": "pragma solidity = 0.5.9;\n\ncontract Portfolio {\n\taddress public owner;\n\tconstructor(address _owner) public {\n\t\towner = _owner;\n\t}\n\tstruct job {\n\t\tstring companyName;\n\t\tstring position;\n\t\tuint start;\n\t\tuint end;\n\t\tbool verified;\n\t}\n\tuint256 private count;\n\tbytes32[] private jobIDs;\n\tmapping(bytes32 => job) jobMapping;\n\n\tfunction addJob(string calldata _companyName,string calldata _position,uint _start,uint _end) external {\n\t\tbytes32 id = keccak256(abi.encodePacked(_companyName,_position,_start,_end,count));\n\t\tjobIDs.push(id);\n\t\tcount++;\n\t\tjobMapping[id].companyName = _companyName;\n\t\tjobMapping[id].position = _position;\n\t\tjobMapping[id].start = _start;\n\t\tjobMapping[id].end = _end;\n\t\tjobMapping[id].verified = false;\n\t}\n\tfunction getJobById(bytes32 _id) external view returns(string memory,string memory,uint,uint,bool) {\n\t\treturn(jobMapping[_id].companyName,jobMapping[_id].position,jobMapping[_id].start,jobMapping[_id].end,jobMapping[_id].verified);\n\t}\n\tfunction getAllJobId() external view returns (bytes32[] memory) {\n\t\treturn jobIDs;\n\t}\n\tfunction verify(bytes32 _id) external {\n\t    jobMapping[_id].verified = true;\n\t} \n\n}\n\ncontract PortfolioFactory {\n\tmapping (address => address) ownerToPortFolio;\n\n\tconstructor() public {\n\n\t}\n\t\n\tfunction createPortfolio() public {\n\t\tPortfolio p = new Portfolio(tx.origin);\n\t\townerToPortFolio[tx.origin] = address(p);\n\t}\n\tfunction getPortfolioAddress() public view returns (address) {\n\t\treturn ownerToPortFolio[tx.origin];\n\t}\n\tfunction addJob(string calldata _companyName,string calldata _position,uint _start,uint _end) external {\n\t\tPortfolio p = Portfolio(ownerToPortFolio[tx.origin]);\n\t\tp.addJob(_companyName,_position,_start,_end);\n\t}\n\tfunction getAllJobId() external view returns (bytes32[] memory) {\n\t\tPortfolio p = Portfolio(ownerToPortFolio[tx.origin]);\n\t\treturn p.getAllJobId();\n\t}\n\tfunction getJobById(bytes32 _id) external view returns(string memory,string memory,uint,uint,bool) {\n\t\tPortfolio p = Portfolio(ownerToPortFolio[tx.origin]);\n\t\treturn p.getJobById(_id);\n\t}\n\n}",
  "sourcePath": "/Users/muhdsyahrulnizam/Desktop/WorldResume/contracts/PortfolioFactory.sol",
  "compiler": {
    "name": "solc",
    "version": "0.5.9+commit.e560f70d.Emscripten.clang"
  },
  "schemaVersion": "3.0.11",
  "updatedAt": "2019-08-17T14:31:56.871Z",
  "devdoc": {
    "methods": {}
  },
  "userdoc": {
    "methods": {}
  }
}