{
  "contractName": "Portfolio",
  "abi": [
    {
      "constant": true,
      "inputs": [],
      "name": "name",
      "outputs": [
        {
          "name": "",
          "type": "string"
        }
      ],
      "payable": false,
      "stateMutability": "view",
      "type": "function"
    },
    {
      "constant": true,
      "inputs": [],
      "name": "owner",
      "outputs": [
        {
          "name": "",
          "type": "address"
        }
      ],
      "payable": false,
      "stateMutability": "view",
      "type": "function"
    },
    {
      "constant": true,
      "inputs": [],
      "name": "blurb",
      "outputs": [
        {
          "name": "",
          "type": "string"
        }
      ],
      "payable": false,
      "stateMutability": "view",
      "type": "function"
    },
    {
      "inputs": [
        {
          "name": "_owner",
          "type": "address"
        },
        {
          "name": "_name",
          "type": "string"
        },
        {
          "name": "_blurb",
          "type": "string"
        },
        {
          "name": "_companyNames",
          "type": "bytes32[]"
        },
        {
          "name": "_positions",
          "type": "bytes32[]"
        },
        {
          "name": "_startTimes",
          "type": "uint256[]"
        },
        {
          "name": "_endTimes",
          "type": "uint256[]"
        }
      ],
      "payable": false,
      "stateMutability": "nonpayable",
      "type": "constructor"
    },
    {
      "constant": false,
      "inputs": [],
      "name": "getDetails",
      "outputs": [
        {
          "name": "",
          "type": "string"
        },
        {
          "name": "",
          "type": "string"
        }
      ],
      "payable": false,
      "stateMutability": "nonpayable",
      "type": "function"
    },
    {
      "constant": false,
      "inputs": [
        {
          "name": "_companyName",
          "type": "bytes32"
        },
        {
          "name": "_position",
          "type": "bytes32"
        },
        {
          "name": "_start",
          "type": "uint256"
        },
        {
          "name": "_end",
          "type": "uint256"
        }
      ],
      "name": "addJob",
      "outputs": [],
      "payable": false,
      "stateMutability": "nonpayable",
      "type": "function"
    },
    {
      "constant": true,
      "inputs": [
        {
          "name": "_id",
          "type": "bytes32"
        }
      ],
      "name": "getJobById",
      "outputs": [
        {
          "name": "",
          "type": "bytes32"
        },
        {
          "name": "",
          "type": "bytes32"
        },
        {
          "name": "",
          "type": "uint256"
        },
        {
          "name": "",
          "type": "uint256"
        },
        {
          "name": "",
          "type": "bool"
        }
      ],
      "payable": false,
      "stateMutability": "view",
      "type": "function"
    },
    {
      "constant": true,
      "inputs": [],
      "name": "getAllJobId",
      "outputs": [
        {
          "name": "",
          "type": "bytes32[]"
        }
      ],
      "payable": false,
      "stateMutability": "view",
      "type": "function"
    },
    {
      "constant": false,
      "inputs": [
        {
          "name": "_id",
          "type": "bytes32"
        }
      ],
      "name": "verify",
      "outputs": [],
      "payable": false,
      "stateMutability": "nonpayable",
      "type": "function"
    }
  ],
  "bytecode": "0x60806040523480156200001157600080fd5b5060405162000e5d38038062000e5d833981810160405260e08110156200003757600080fd5b810190808051906020019092919080516401000000008111156200005a57600080fd5b828101905060208101848111156200007157600080fd5b81518560018202830111640100000000821117156200008f57600080fd5b50509291906020018051640100000000811115620000ac57600080fd5b82810190506020810184811115620000c357600080fd5b8151856001820283011164010000000082111715620000e157600080fd5b50509291906020018051640100000000811115620000fe57600080fd5b828101905060208101848111156200011557600080fd5b81518560208202830111640100000000821117156200013357600080fd5b505092919060200180516401000000008111156200015057600080fd5b828101905060208101848111156200016757600080fd5b81518560208202830111640100000000821117156200018557600080fd5b50509291906020018051640100000000811115620001a257600080fd5b82810190506020810184811115620001b957600080fd5b8151856020820283011164010000000082111715620001d757600080fd5b50509291906020018051640100000000811115620001f457600080fd5b828101905060208101848111156200020b57600080fd5b81518560208202830111640100000000821117156200022957600080fd5b50509291905050506000600181905550866000806101000a81548173ffffffffffffffffffffffffffffffffffffffff021916908373ffffffffffffffffffffffffffffffffffffffff16021790555085600490805190602001906200029192919062000468565b508460059080519060200190620002aa92919062000468565b5060008090505b84518110156200032d576200031f858281518110620002cc57fe5b6020026020010151858381518110620002e157fe5b6020026020010151858481518110620002f657fe5b60200260200101518585815181106200030b57fe5b60200260200101516200033b60201b60201c565b8080600101915050620002b1565b505050505050505062000517565b6000848484846001546040516020018086815260200185815260200184815260200183815260200182815260200195505050505050604051602081830303815290604052805190602001209050600281908060018154018082558091505090600182039060005260206000200160009091929091909150555060016000815480929190600101919050555084600360008381526020019081526020016000206000018190555083600360008381526020019081526020016000206001018190555082600360008381526020019081526020016000206002018190555081600360008381526020019081526020016000206003018190555060006003600083815260200190815260200160002060040160006101000a81548160ff0219169083151502179055505050505050565b828054600181600116156101000203166002900490600052602060002090601f016020900481019282601f10620004ab57805160ff1916838001178555620004dc565b82800160010185558215620004dc579182015b82811115620004db578251825591602001919060010190620004be565b5b509050620004eb9190620004ef565b5090565b6200051491905b8082111562000510576000816000905550600101620004f6565b5090565b90565b61093680620005276000396000f3fe608060405234801561001057600080fd5b50600436106100885760003560e01c80638da5cb5b1161005b5780638da5cb5b146101e9578063c574d58814610233578063d99aaed414610295578063fbbf93a01461031857610088565b8063015e8a271461008d57806306fdde03146100ec57806375e366161461016f578063882bbbe81461019d575b600080fd5b610095610407565b6040518080602001828103825283818151815260200191508051906020019060200280838360005b838110156100d85780820151818401526020810190506100bd565b505050509050019250505060405180910390f35b6100f461045f565b6040518080602001828103825283818151815260200191508051906020019080838360005b83811015610134578082015181840152602081019050610119565b50505050905090810190601f1680156101615780820380516001836020036101000a031916815260200191505b509250505060405180910390f35b61019b6004803603602081101561018557600080fd5b81019080803590602001909291905050506104fd565b005b6101e7600480360360808110156101b357600080fd5b810190808035906020019092919080359060200190929190803590602001909291908035906020019092919050505061052f565b005b6101f161065c565b604051808273ffffffffffffffffffffffffffffffffffffffff1673ffffffffffffffffffffffffffffffffffffffff16815260200191505060405180910390f35b61025f6004803603602081101561024957600080fd5b8101908080359060200190929190505050610681565b60405180868152602001858152602001848152602001838152602001821515151581526020019550505050505060405180910390f35b61029d61071c565b6040518080602001828103825283818151815260200191508051906020019080838360005b838110156102dd5780820151818401526020810190506102c2565b50505050905090810190601f16801561030a5780820380516001836020036101000a031916815260200191505b509250505060405180910390f35b6103206107ba565b604051808060200180602001838103835285818151815260200191508051906020019080838360005b83811015610364578082015181840152602081019050610349565b50505050905090810190601f1680156103915780820380516001836020036101000a031916815260200191505b50838103825284818151815260200191508051906020019080838360005b838110156103ca5780820151818401526020810190506103af565b50505050905090810190601f1680156103f75780820380516001836020036101000a031916815260200191505b5094505050505060405180910390f35b6060600280548060200260200160405190810160405280929190818152602001828054801561045557602002820191906000526020600020905b815481526020019060010190808311610441575b5050505050905090565b60048054600181600116156101000203166002900480601f0160208091040260200160405190810160405280929190818152602001828054600181600116156101000203166002900480156104f55780601f106104ca576101008083540402835291602001916104f5565b820191906000526020600020905b8154815290600101906020018083116104d857829003601f168201915b505050505081565b60016003600083815260200190815260200160002060040160006101000a81548160ff02191690831515021790555050565b6000848484846001546040516020018086815260200185815260200184815260200183815260200182815260200195505050505050604051602081830303815290604052805190602001209050600281908060018154018082558091505090600182039060005260206000200160009091929091909150555060016000815480929190600101919050555084600360008381526020019081526020016000206000018190555083600360008381526020019081526020016000206001018190555082600360008381526020019081526020016000206002018190555081600360008381526020019081526020016000206003018190555060006003600083815260200190815260200160002060040160006101000a81548160ff0219169083151502179055505050505050565b6000809054906101000a900473ffffffffffffffffffffffffffffffffffffffff1681565b6000806000806000600360008781526020019081526020016000206000015460036000888152602001908152602001600020600101546003600089815260200190815260200160002060020154600360008a815260200190815260200160002060030154600360008b815260200190815260200160002060040160009054906101000a900460ff169450945094509450945091939590929450565b60058054600181600116156101000203166002900480601f0160208091040260200160405190810160405280929190818152602001828054600181600116156101000203166002900480156107b25780601f10610787576101008083540402835291602001916107b2565b820191906000526020600020905b81548152906001019060200180831161079557829003601f168201915b505050505081565b60608060046005818054600181600116156101000203166002900480601f0160208091040260200160405190810160405280929190818152602001828054600181600116156101000203166002900480156108565780601f1061082b57610100808354040283529160200191610856565b820191906000526020600020905b81548152906001019060200180831161083957829003601f168201915b50505050509150808054600181600116156101000203166002900480601f0160208091040260200160405190810160405280929190818152602001828054600181600116156101000203166002900480156108f25780601f106108c7576101008083540402835291602001916108f2565b820191906000526020600020905b8154815290600101906020018083116108d557829003601f168201915b5050505050905091509150909156fea265627a7a72305820f82dd93383432a41325ac0d2bdf0ed1c1b21b50407004e01704c92463a367c8b64736f6c63430005090032",
  "source": "pragma solidity = 0.5.9;\n\ncontract Portfolio {\n\taddress public owner;\n\tstruct job {\n\t\tbytes32 companyName;\n\t\tbytes32 position;\n\t\tuint start;\n\t\tuint end;\n\t\tbool verified;\n\t}\n\tuint256 private count;\n\tbytes32[] private jobIDs;\n\tmapping(bytes32 => job) jobMapping;\n\t\n\tstring public name;\n\tstring public blurb;\n\t\n\tconstructor(address _owner,\n        \t    string memory _name,\n        \t    string memory _blurb,\n        \t    bytes32[] memory _companyNames,\n        \t    bytes32[] memory _positions,\n        \t    uint[] memory _startTimes,\n        \t    uint[] memory _endTimes) public {\n\t            count = 0;\n\t\t        owner = _owner;\n\t\t        name =_name;\n\t\t        blurb =_blurb;\n\t\t        for(uint i=0;i<_companyNames.length;i++){\n                    addJob(_companyNames[i],_positions[i],_startTimes[i],_endTimes[i]);\n\t\t        }\n\t\t        \n\t}\n\t\n\tfunction getDetails() external returns(string memory, string memory) {\n\t\treturn(name,blurb);\n\t}\n\n\tfunction addJob(bytes32 _companyName,bytes32 _position,uint _start,uint _end) public {\n\t\tbytes32 id = keccak256(abi.encodePacked(_companyName,_position,_start,_end,count));\n\t\tjobIDs.push(id);\n\t\tcount++;\n\t\tjobMapping[id].companyName = _companyName;\n\t\tjobMapping[id].position = _position;\n\t\tjobMapping[id].start = _start;\n\t\tjobMapping[id].end = _end;\n\t\tjobMapping[id].verified = false;\n\t}\n\tfunction getJobById(bytes32 _id) external view returns(bytes32,bytes32,uint,uint,bool) {\n\t\treturn(jobMapping[_id].companyName,jobMapping[_id].position,jobMapping[_id].start,jobMapping[_id].end,jobMapping[_id].verified);\n\t}\n\tfunction getAllJobId() external view returns (bytes32[] memory) {\n\t\treturn jobIDs;\n\t}\n\tfunction verify(bytes32 _id) external {\n\t    jobMapping[_id].verified = true;\n\t} \n\n}\n\ncontract PortfolioFactory {\n\tmapping (address => address) ownerToPortFolio;\n\n\tconstructor() public {\n\n\t}\n\t\n\tfunction createPortfolio(\n\t    address _owner,\n\t    string memory _name,\n\t    string memory _blurb,\n\t    bytes32[] memory _companyNames,\n\t    bytes32[] memory _positions,\n\t    uint[] memory _startTimes,\n\t    uint[] memory _endTimes) public {\n\t\tPortfolio p = new Portfolio(_owner,_name,_blurb,_companyNames,_positions,_startTimes,_endTimes);\n\t\townerToPortFolio[_owner] = address(p);\n\t}\n\tfunction getPortfolioAddress() public view returns (address) {\n\t\treturn ownerToPortFolio[tx.origin];\n\t}\n\tfunction addJob(address _owner, bytes32 _companyName,bytes32 _position,uint _start,uint _end) external {\n\t\tPortfolio p = Portfolio(ownerToPortFolio[_owner]);\n\t\tp.addJob(_companyName,_position,_start,_end);\n\t}\n\tfunction getAllJobId(address _owner) external view returns (bytes32[] memory) {\n\t\tPortfolio p = Portfolio(ownerToPortFolio[_owner]);\n\t\treturn p.getAllJobId();\n\t}\n\tfunction getJobById(address _owner,bytes32 _id) external view returns(bytes32,bytes32,uint,uint,bool) {\n\t\tPortfolio p = Portfolio(ownerToPortFolio[_owner]);\n\t\treturn p.getJobById(_id);\n\t}\n\tfunction  getDetails(address _owner) external returns(string memory, string memory) {\n\t\tPortfolio p = Portfolio(ownerToPortFolio[_owner]);\n\t\treturn p.getDetails();\n\t}\n\n}",
  "sourcePath": "/Users/muhdsyahrulnizam/Desktop/WorldResume/contracts/PortfolioFactory.sol",
  "compiler": {
    "name": "solc",
    "version": "0.5.9+commit.e560f70d.Emscripten.clang"
  },
  "schemaVersion": "3.0.11",
  "updatedAt": "2019-08-18T13:40:38.436Z",
  "devdoc": {
    "methods": {}
  },
  "userdoc": {
    "methods": {}
  }
}